:020000040800F2
:1000000000000120D13F0008DD2D0008DF2D000891
:10001000E12D0008E32D0008E52D00080000000098
:10002000000000000000000000000000E72D0008B4
:10003000E92D000800000000EB2D0008ED2D000860
:10004000214000082140000821400008214000080C
:1000500021400008214000082140000821400008FC
:1000600021400008214000082140000821400008EC
:1000700021400008214000082140000821400008DC
:100080002140000821400008214000080000000035
:1000900000000000000000000000000021400008F7
:1000A00021400008214000082140000821400008AC
:1000B000214000082140000821400008214000089C
:1000C000214000082140000821400008214000088C
:1000D00021400008214000082140000800000000E5
:1000E00021400008214000082140000800000000D5
:1000F0000000000000000000000000002140000897
:1001000000000000214000082140000821400008B4
:1001100000000000000000000000000000000000DF
:100120002140000821400008F12D0008214000086E
:100130002140000800000000000000000000000056
:10014000000000000000000000000000FD2D00087D
:100150002140000821400008092E00082140000825
:1001600021400008214000080000000000000000BD
:10017000000000000000000000000000000000007F
:100180000000000021400008000000000000000006
:040190002140000802
:1001940010B5054C237833B9044B13B10448AFF3BD
:1001A40000800123237010BDF8000020000000002F
:1001B4002440000808B5034B1BB103490348AFF3BF
:1001C400008008BD00000000FC000020244000085E
:1001D40053B94AB9002908BF00281CBF4FF0FF31AA
:1001E4004FF0FF3000F072B9ADF1080C6DE904CEA8
:1001F40000F006F8DDF804E0DDE9022304B07047FE
:100204002DE9F047089E04468846002B4BD18A42CC
:10021400154667D9B2FA82F24AB1C2F1200701FA4F
:1002240002F320FA07F7954047EA030894404FEA9F
:10023400154E230CB8FBFEF71FFA85FC0EFB17883E
:1002440043EA084307FB0CF1994209D9EB1807F17B
:10025400FF3080F01B81994240F21881023F2B4409
:100264005B1AA4B2B3FBFEF00EFB103344EA034462
:1002740000FB0CFCA44509D92C1900F1FF3380F0D4
:100284000781A44540F2048102382C4440EA074027
:10029400A4EB0C0400271EB1D4400023C6E900439C
:1002A4003946BDE8F0878B4209D9002E00F0EB8077
:1002B4000027C6E9000138463946BDE8F087B3FA9D
:1002C40083F7002F47D18B4202D3824200F2FA8097
:1002D400841A61EB030301209846002EE0D0C6E99E
:1002E4000048DDE702B9FFDEB2FA82F2002A40F0EC
:1002F4008F80491B4FEA154E1FFA85F80127B1FB81
:10030400FEFC230C0EFB1C1143EA014308FB0CF119
:10031400994207D9EB180CF1FF3002D2994200F24E
:10032400CD808446591AA3B2B1FBFEF00EFB101423
:1003340043EA044408FB00F8A04507D92C1900F14E
:10034400FF3302D2A04500F2B6801846A4EB08049D
:1003540040EA0C409FE7C7F1200CBB4022FA0CFE98
:100364004EEA030E01FA07F420FA0CF521FA0CF315
:100374004FEA1E482543B3FBF8F92C0C08FB19334C
:100384001FFA8EFA44EA034309FB0AF49C4202FA78
:1003940007F200FA07F10BD91EEB030309F1FF3052
:1003A40080F087809C4240F28480A9F10209734462
:1003B4001B1BADB2B3FBF8F008FB103345EA034452
:1003C40000FB0AFAA24508D91EEB040400F1FF332E
:1003D4006BD2A24569D90238744440EA0940A0FBB3
:1003E4000289A4EB0A044C45C2464B4654D351D06F
:1003F400002E69D0B1EB0A0564EB030404FA0CFC8B
:10040400FD40FC404CEA0505C6E90054002747E7D7
:10041400C2F1200320FA03F7954001FA02F021FA11
:1004240003F34FEA154E3843010CB3FBFEF71FFAF2
:1004340085F80EFB173341EA034107FB08F38B42AF
:1004440004FA02F407D9691807F1FF3C2FD28B4252
:100454002DD9023F2944CB1A81B2B3FBFEF00EFB27
:10046400103341EA034100FB08F38B4207D96918B2
:1004740000F1FF3C17D28B4215D902382944C91A1E
:1004840040EA07473BE73746304609E70746E7E6D1
:100494001846FBE64145ABD2B8EB020A69EB0E0203
:1004A40001381346A4E76046E9E7184695E767462E
:1004B400D1E781467CE702382C4447E7ACF1020CD3
:1004C4002B442FE7384608E73746E9E6704700BF74
:1004D40038B50E4A0E4B054618784FF47A73B3FBC1
:1004E400F0F31068B0FBF3F000F0AAF8044658B932
:1004F4000F2D09D8024629464FF0FF3000F05EF870
:10050400044B20461D6038BD0120FCE7F4000020A8
:10051400000000200400002008B50B4B1A6842F4C8
:1005240000721A601A6842F480621A601A6842F40F
:1005340080721A60032000F02FF80F20FFF7C8FF25
:1005440002F0B6FB002008BD003C0240034A044B05
:1005540011681B780B441360704700BF48030020E8
:1005640000000020014B1868704700BF48030020BA
:1005740038B50446FFF7F6FF631C1CBF054B1B7818
:10058400054618BFE418FFF7EDFF401BA042FAD35D
:1005940038BD00BF00000020074AD36823F4E0639D
:1005A4001B041B0C43F0BF63000243F4003300F44C
:1005B400E0600343D360704700ED00E0174B70B573
:1005C400DC68C4F30224C4F10705042D04F1040318
:1005D40028BF04254FF0FF36062B06FA05F38CBF1F
:1005E400033C002421EA0303A34006FA04F422EAAC
:1005F4000404002843EA0403A8BF00F160404FEA62
:100604000313BCBF00F00F00054ADBB2AABF00F51C
:100614006140135480F8003370BD00BF00ED00E06A
:1006240014ED00E0002808DB0123420900F01F005C
:1006340003FA00F0014B43F82200704700E100E0A8
:100644000138B0F1807F0AD2064B074A5860F02186
:1006540082F823100020072298601A607047012056
:10066400704700BF10E000E000ED00E00368DAB27C
:1006740023F47F7323F003031821103AB2FBF1F241
:100684000449032A88BF0433895C8365C165806D8E
:10069400704700BF3C40000870B50446FFF762FF96
:1006A4000546002C71D00223226884F835300023DB
:1006B40084F83430136823F00103136021680B6855
:1006C400D8073CD40B68324DA0691D40D4E90123FE
:1006D4001343E26813432269134362691343E269D3
:1006E40003431343226A1343626A042A43EA050359
:1006F40002BFD4E90B5635432B430B604B69042AE4
:1007040023F0070343EA02030BD1A26AE56A134309
:100714003DB1F8B9012A2DD001D3022A01D1EA0151
:100724002BD44B612046FFF7A1FFE26D3F2393409A
:10073400836000200123606584F8353009E0FFF709
:1007440011FF401B0528B9D920236365032084F8D1
:10075400350070BDB0F5005F13D1032AE1D801A0C4
:1007640050F822F07F070008230700087F070008DD
:1007740079070008B5F1C07FD3D140236365012018
:10078400E5E7022AF9D9032AC8E70120E1E700BF17
:100794003F8010F070B590F83440012C32D0012421
:1007A40080F8344090F83540866D012C4FF00005F8
:1007B4004FF0020424D180F835400468456525686B
:1007C40025F48025256063608368402B0EBFA260FA
:1007D400A160E260C26D08BFE1603F239340B36053
:1007E400236843F016032360036C1BB1236843F0B2
:1007F40008032360236843F001032360002070BDD5
:1008040080F834500220FAE7F7B5002301935C4BDB
:10081400856D1F68C36D2E6808229A4032420446D3
:100824000CD001680868400708D5086820F0040067
:100834000860AA60626D42F00102626501229A407A
:10084400324208D021684969090641BFAA60626D35
:1008540042F00202626504229A40324208D02168C2
:100864000968880741BFAA60626D42F004026265AC
:1008740010229A40324210D02368196809070CD517
:10088400AA601A68500337D51B68190301D4236C76
:1008940000E0A36C0BB120469847E16D20228A400A
:1008A40032423AD023681868C60636D5AA6094F84E
:1008B4003520052A1A6827D122F016021A605A69CF
:1008C40022F080025A61226C0AB9A26C1AB11A6829
:1008D40022F008021A603F238B40AB60012384F8A6
:1008E4003530002384F83430236D002B45D0204666
:1008F40003B0BDE8F04018471A68D2055EBF1A6815
:1009040022F008021A60C2E7500327D51B681903B6
:1009140031D4636C0BB120469847636D6BB3636D40
:10092400DA0719D50523226884F83530136823F0D3
:10093400010313604FF41653B7FBF3F7019B013324
:10094400BB42019302D81368DB07F7D4012384F870
:100954003530002384F83430E36CC6E71A6812F4A7
:10096400807208D1196821F010011960012384F8FC
:10097400353084F83420E36BCCE703B0F0BD00BF1E
:10098400F40000202DE9F04F85B00B68DFF8A48156
:10099400664A01934FF0010B0023019D0BFA03F407
:1009A4002540AC4240F0B2804E684FEA430E06F058
:1009B4000304032707FA0EF704F1FF3CFF43BCF1DD
:1009C400010F00973CD8D0F808C00CEA070CCF6898
:1009D40007FA0EF949EA0C0CC0F808C0D0F80490E4
:1009E400C6F3001C29EA05090CFA03FC4CEA090CBD
:1009F400C0F804C0D0F80CC0009F0CEA070C8F6844
:100A040007FA0EF949EA0C0C022CC0F80CC019D1F3
:100A14004FEAD30900EB890903F0070AD9F82070DB
:100A24004FEA8A0A4FF00F0C0CFA0AFC27EA0C0C66
:100A34000F6907FA0AFA4AEA0C0AC9F820A001E089
:100A4400032CD7D1D0F800C0009F04FA0EF40CEAAE
:100A54000707274316F4403F076057D04FF0000ABA
:100A6400CDF80CA0D8F84470314C47F48047C8F84E
:100A74004470D8F8447007F480470397039F23F029
:100A8400030707F1804707F59C3703F0030ED7F8F7
:100A940008904FEA8E0E4FF00F0C0CFA0EFCA04299
:100AA40029EA0C0C39D004F58064A04237D004F54F
:100AB4008064A04235D004F58064A04233D004F5AC
:100AC4008064A04214BF0724042404FA0EF444EA08
:100AD4000C04BC609468EF4316F4801F0CBF3C40C8
:100AE4002C439460D46816F4001F0CBF3C402C4384
:100AF400D460546816F4003F0CBF3C402C4354604F
:100B04001468F60354BF3C402C4314600133102B8B
:100B14007FF443AF05B0BDE8F08F5446D5E7012418
:100B2400D3E70224D1E70324CFE700BF003C014010
:100B340000000240003802400AB181617047090494
:100B4400FBE7F7B5044610B390F89534056803F055
:100B5400FF021BB980F8942402F048FA0323B5F18C
:100B6400A04F84F8953404BF0023A371206801F0DA
:100B7400C7FA237C8DF80030251D95E80E00206807
:100B840001F000FA014620B1022384F895340125CE
:100B940046E0206801F0BAFA0028F5D1267904F17C
:100BA400140301270246C1B28E4203F1240317D86D
:100BB400002104F515730A46C8B2864203F12403E2
:100BC4001CD8237C8DF8003095E80E00206801F0D5
:100BD40019FB01230546E8B1022284F89524D6E7DF
:100BE40023F80A0C03F8237C03F8241C03F8202CB4
:100BF40043E9072243F8142C0130D4E703F8232CEB
:100C040003F8240C03F8202C43E9072243F8142C9E
:100C14000131D1E7607484F89534206801F027FE2F
:100C2400284603B0F0BD90F89434012B10B5044667
:100C340016D00068012384F89434C3685B0606D593
:100C4400637B012B02BF836B43F48033836301F026
:100C540051FA206801F0FDFD002084F8940410BDD1
:100C64000220FCE790F89424012A10B504460AD027
:100C7400012280F894246174006801F0DAFD0020F8
:100C840084F8940410BD0220FCE770B501F00F0550
:100C9400044611F0800F05EBC5004FEA80004FF0C9
:100CA400240620D006FB054600F11401012021444E
:100CB4007075C2F30A028A604A780D700B7102B132
:100CC4004D83022B04BF00234B7194F89434012B01
:100CD40012D0012384F89434206801F05AFB0020D8
:100CE40084F8940470BD06FB054600F515710020D8
:100CF400214486F85502DCE70220F3E710B50446E8
:100D040001F00F0000EBC00311F0800F4FEA8303E2
:100D14004FF0240215D002FB004203F11401012319
:100D240021445375087094F89434012B12D0012394
:100D340084F89434206801F06BFB002084F8940458
:100D440010BD02FB004203F515710023214482F813
:100D54005532E7E70220F3E738B501F00F05242404
:100D640004FB050104FB050401F51571C4F86432A4
:100D74000023C4F86022C4F8683284F8553284F839
:100D8400545283790068012B08BFC4F870221A46B4
:100D940001F0E6FB002038BD242301F00F0103FB22
:100DA4000101D1F86802704738B501F00F05242419
:100DB40004FB050104FB0504C4E908230023A36222
:100DC40001236375257583790068012B08BF2263AD
:100DD40014311A4601F0C4FB002038BD38B503793C
:100DE40001F00F05AB4204462DD311F0800F4FF0F4
:100DF40024021ED002FB050102FB05030122143369
:100E04004A7501229A701D7094F8941491421CD072
:100E140084F894241946206801F0B7FC2DB904F233
:100E24009C42A179206801F073FD002084F89404A9
:100E340038BD02FB010302FB0101002203F5157317
:100E440081F85522DDE70120F2E70220F0E738B50A
:100E5400037901F00F029342044629D302EBC20343
:100E640011F0800F4FEA83034FF0240017D000FBEA
:100E7400024003F1140101232144437500258D70C0
:100E84000A7094F89434012B14D0012384F8943418
:100E9400206801F0A5FC84F89454284638BD00FB72
:100EA400024003F515710023214480F85532E5E72B
:100EB4000120F3E70220F1E701F00F0303EBC30382
:100EC4000A064FEA83034CBF03F1140103F51571BD
:100ED4000144006801F0EEBA2DE9F04F056889B0CD
:100EE4000446284601F000FD0390002840F0588194
:100EF400206801F0CAFC002800F0528105F5006664
:100F0400B3682068C3F30D23C4F8D43401F0BDFCE6
:100F1400810748BF2268206842BF536903F0020377
:100F2400536101F0B2FCC2062AD52268936923F00A
:100F3400100393612F6AC7F34343022B07F00F0991
:100F440040F0318147F6F0731F4214D0C7F30A18FA
:100F5400242707FB09474246D7F86012284601F0C8
:100F6400EFFBD7F860324344C7F86032D7F86832F1
:100F74004344C7F868322268936943F010039361CD
:100F8400206801F082FC030300F12181206801F054
:100F94007CFC47030DD527464FF0000857F8170B84
:100FA40001F07FFC05F5106A0490049B002B40F0CF
:100FB400E781206801F069FC002813DA736823F0E4
:100FC4000103736094F8CC34012B40F0918200212A
:100FD40084F8CC14204600F009FB2268536903F01E
:100FE40000435361206801F050FC02050AD5B36840
:100FF400DB0702D5204602F069F82268536903F43E
:1010040000635361206801F040FCC70433D5736862
:10101400206823F001037360102101F0A7F8207900
:1010240005F510634FF67F31039A904200F2648213
:10103400F36943F00113F361E37B002B00F0748246
:10104400D6F8843043F00B03C6F88430736C43F055
:101054000B037364D5F80038206823F4FE63C5F8E5
:10106400003804F29C42A17901F052FC22685369D1
:1010740003F480535361206801F007FC800416D503
:10108400206801F035FC206801F078F9E0712768E8
:1010940000F022FDE2790146384600F0B7FF204611
:1010A40002F001F82268536903F400535361206885
:1010B40001F0EBFB010707D5204601F0F0FF2268A1
:1010C400536903F008035361206801F0DEFB020654
:1010D40000F13582206801F0D8FBC3020DD505F577
:1010E400126801274FF024092379BB4200F23E82A3
:1010F4002268536903F480135361206801F0C5FB2F
:10110400870230D594F804C005F5326101234FF00D
:10111400240E9C4522D90EFB03470A6897F858828F
:10112400B8F1010F40F03682002A80F23382D4F8FD
:10113400D40402F4803200F00100824240F02A829A
:1011440087F85782AA6942F08002AA616A69100688
:1011540000F12082736843F400737360226853695A
:1011640003F400135361206801F08FFB410007D59D
:10117400204601F0CFFF2268536903F08043536196
:10118400206801F082FB42070AD523685D686B077B
:1011940002D5204601F0C2FF226853682B435360F6
:1011A40009B0BDE8F08F062B7FF4E5AE082204F207
:1011B4009C41284601F0C4FA242303FB0949C7F3E0
:1011C4000A17D9F868321F44C9F86872D3E6206850
:1011D400DFF8CCB301F05DFB00278246BAF1000FC3
:1011E4003FF4D4AE1AF0010F00F08A805FFA87F959
:1011F4004946206801F05DFB10F0010F804620D0C5
:101204007B0105F530621A440121D4F800E09160B5
:1012140094F806C0DEF840100EF530621344BCF1B9
:10122400010F9A6840F09780100706D5594508D9F0
:10123400120406D54FF4004202E0900664D5202241
:101244009A6018F0080F21D07B0105F530621A442A
:10125400082191602268116C02F5306213445945EB
:101264009A6804D9120444BF4FF400429A6020469D
:10127400049101F0FDFE0499594507D9A17901298A
:1012840004D104F29C42206801F042FB18F0100FD4
:101294001FBF05F5306303EB471310229A6018F063
:1012A400020F1AD06B69180642BF736843F4806357
:1012B4007360242303FB074393F85722012A06D1C2
:1012C400002283F857224946204601F01BFF05F50A
:1012D400306303EB471302229A6018F0200F1FBFFC
:1012E40005F5306303EB471320229A6018F4005F7E
:1012F4001FBF05F5306303EB47134FF400529A60A8
:1013040001374FEA5A0A69E712F0280F99D1594573
:1013140001D912048ED4242202FB07421969D2F89F
:101324007432C1F312015B1AC2F8683277B9D4F887
:10133400642232B904F29C420121704601F0E8FAB9
:1013440004E0D4F860221344C4F8603249462046CD
:1013540001F094FE75E79148814207D110043FF5EE
:1013640069AF9106F2D520229A60EFE7002FEDD104
:10137400D4F86432002BE9D104F29C423946DCE70C
:10138400049BD90740F189805FFA88FB594620689D
:1013940001F098FA10F0010F814624D00121736BFB
:1013A40008F00F0201FA02F223EA020373630AEB64
:1013B40048130A469960A179914210D1D7F80930AF
:1013C400D7F805201344C7F80930B8F1000F06D147
:1013D400636A23B904F29C42206801F099FA5946E1
:1013E400204601F054FE19F0080F1EBF0AEB481303
:1013F40008229A6019F0100F1EBF0AEB481310223E
:101404009A6019F0400F1EBF0AEB481340229A60FD
:1014140019F0020F10D04146284600F0A7FE3B7891
:10142400012B05D100233B705946204601F06EFE86
:101434000AEB481302229A6019F0800F2DD0D7F8D6
:101444001120D7F80D309A4227D89B1AD7F80520D7
:1014540021680591934228BF134603339B080693E2
:1014640001F5106303EB48130793079B06989969EA
:10147400D7F81120D7F80D3089B2814214D29342A3
:101484000BD8059B08F00F01D3F83428012000FA8B
:1014940001F122EA0102C3F83428049B5B0808F135
:1014A40001080493243780E59342EAD9002BE8D05D
:1014B400A3EB0209D7F805300598994528BF99464A
:1014C40009F103039B080693A37900935A461FFA74
:1014D40089F3D7F8091001F02EF8D7F809304B44F6
:1014E400C7F80930D7F811304B44C7F81130BCE7BE
:1014F400204601F003FE70E599601A6822F4001298
:101504001A60C3F80812D3F8002222F40012C3F8B8
:101514000022D3F8002242F00062C3F80022039AAA
:101524000132039220337FE5736943F4005343F09F
:101534002B037361336943F00B0333618AE5AB69B1
:1015440023F08003AB6101274FF024082379BB42C9
:101554007FF6C0AD08FB074393F85732012B03D144
:10156400F9B22046FFF7A8FC0137EFE709FB074370
:10157400D8F800101A7E012A08D1002906DA67F08B
:101584007F01DA75C9B22046FFF796FC013708F1EE
:101594002008A9E501332031BBE500BF0A31544FCF
:1015A4000A30544F006870B51204446A19B92243D2
:1015B4008262002070BD836A4D1E04EB1344002335
:1015C4005E1CDBB29D4205D83F3100EB8100224313
:1015D4004260EEE7403300EB83035B6804EB1344A3
:1015E4003346EDE7036800205962704770470000F6
:1015F4002DE9F341044608B901203FE00368DD0703
:1016040010D4236898075AD423681A0700F19C80E1
:1016140023685B0700F1BA80A069002840F01B81B1
:1016240000202BE0A74B9A6802F00C02042A07D092
:101634009A6802F00C02082A0AD15B68590207D59D
:10164400A04B1B689A03DCD56368002BD9D1D3E780
:1016540063689C4DB3F5803F13D12B6843F480330A
:101664002B60FEF77FFF974D06462B689B03C8D47B
:10167400FEF778FF801B6428F7D9032002B0BDE889
:10168400F081B3F5A02F04D12B6843F480232B60A1
:10169400E3E72A6822F480322A602A6822F480224E
:1016A4002A60002BDDD1FEF75DFF06462B689F0301
:1016B400A7D5FEF757FF801B6428F7D9DDE7814BD8
:1016C4009A6812F00C0F07D09A6802F00C02082AEC
:1016D40011D15B685E020ED47A4B1A68950702D565
:1016E400E268012A88D11A68216922F0F80242EAE4
:1016F400C1021A6088E7E268734BB2B101221A6032
:10170400FEF730FF6F4D06462B68980707D52B6808
:10171400226923F0F80343EAC2032B6074E7FEF75F
:1017240021FF801B0228EFD9A7E71A60FEF71AFFF2
:10173400644D06462B6899077FF566AFFEF712FFE6
:10174400801B0228F6D998E76269604B7AB10122BE
:101754001A60FEF707FF5B4D06466B6F9F073FF568
:1017640057AFFEF7FFFE801B0228F6D985E71A6003
:10177400FEF7F8FE534D06466B6F98077FF548AFAA
:10178400FEF7F0FE801B0228F6D976E74D4B1A6C63
:1017940012F0805228D101921A6C42F080521A64DD
:1017A4001B6C03F080530193019B0126484D2B6869
:1017B400D9051BD5A368434D012B27D12B6F43F0CB
:1017C40001032B67FEF7CEFE3E4D074641F28838F3
:1017D4002B6F9B0739D5002E3FF41EAF394A136C8B
:1017E40023F08053136417E70026DFE72B6843F4E4
:1017F40080732B60FEF7B6FE07462B68DA05D9D452
:10180400FEF7B0FEC01B0228F7D936E7052B04D13A
:101814002B6F43F004032B67D0E72A6F22F00102F9
:101824002A672A6F22F004022A67002BCAD1FEF726
:1018340099FE41F2883807462B6F9807CBD5FEF7FF
:1018440091FEC01B4045F7D917E7FEF78BFEC01B7E
:101854004045BDD911E71B4DAB6803F00C03082BC1
:1018640047D01C4E00230228336035D1FEF77AFEA0
:1018740007462B6899011ED4D4E907321343626AE0
:1018840043EA8213E26A43EA0263A26A0D4C5208F5
:10189400013A43EA02436B6001233360FEF762FEC0
:1018A400054623689A013FF5BBAEFEF75BFE401B7D
:1018B4000228F6D9E1E6FEF755FEC01B0228D8D966
:1018C400DBE600BF0038024000004742800E47427A
:1018D4000070004060004742FEF744FE04462B6857
:1018E4009B017FF59DAEFEF73DFE001B0228F6D955
:1018F400C3E601283FF4C2AE6B68E26903F48001D9
:1019040091427FF479AE216A03F03F028A427FF468
:1019140073AE616A47F6C0721A40B2EB811F7FF45E
:101924006BAEA26A520803F44031013AB1EB024FA4
:101934007FF462AEE26A03F07063B3EB026F14BF2C
:10194400012000209AE600BF134908B58B6803F014
:101954000C03042B03D0082B03D0104800E01048DC
:1019640008BD4A684B68496813F4800314BF0C48E7
:101974000A48C1F3881118BF002302F03F02A1FBFB
:101984000001FEF725FC044B5B68C3F301430133FC
:101994005B00B0FBF3F0E3E7003802400024F400FE
:1019A40040787D012DE9F0410D46044610B901202F
:1019B400BDE8F081434B1A6802F007028A4228D33B
:1019C40021688F072DD4C80740D43E4B1A6802F013
:1019D4000702AA4265D8226851076BD4130707D5BA
:1019E400394A2169936823F4604343EAC10393604D
:1019F400FFF7AAFF344B354A9B68C3F30313D35C48
:101A0400D840334B1860334B1868FEF761FD002053
:101A1400CEE7CAB21A701B6803F007038B42C6D123
:101A2400CEE7294B11F0040F1EBF9A6842F4E0522E
:101A34009A600E0742BF9A6842F460429A609A68BC
:101A4400A06822F0F00202439A60BCE762681E4B71
:101A5400012A1CD11B6813F4003FA8D01A4EB368A6
:101A640023F003031343B360FEF77CFD41F288388F
:101A74000746B368626803F00C03B3EB820FA4D08B
:101A8400FEF770FDC01B4045F3D9032090E7911E7B
:101A940001291B6802D813F0007FDEE713F0020F60
:101AA400DBE7EAB21A701B6803F00703AB427FF46A
:101AB4007EAF90E70449E0688B6823F4E053034366
:101AC4008B608BE7003C0240003802408A400008EB
:101AD400F400002004000020014B1868704700BF88
:101AE400F4000020044B054A9B68C3F38223D35CB3
:101AF400034A1068D8407047003802409A400008F2
:101B0400F4000020044B054A9B68C3F34233D35CC2
:101B1400034A1068D8407047003802409A400008D1
:101B2400F4000020026802F10C0353E8003F23F4A0
:101B340090730C3242E8003102680029F2D102F1BC
:101B4400140353E8003F23F0010302F1140C4CE8A2
:101B540000310029F3D1036B012B0BD102F10C03EB
:101B640053E8003F23F0100302F10C0C4CE8003161
:101B74000029F3D1202380F8423000230363704707
:101B84000268C168136923F440530B4370B51361B1
:101B9400054683680069D168034368690343E869BB
:101BA40021F4164121F00C0103430B43D360536924
:101BB400A96923F440730B4353611F4B9A4203D02A
:101BC40003F580639A4224D1FFF79CFFEA69192345
:101BD400B2F5004FA0FB0301D5E900431CD1DA188C
:101BE4004FF0000646EB0603FEF7F2FA6421B0FB61
:101BF400F1F501FB1503DB003233B3FBF1F303F022
:101C040007025B0002EB051203F4F8731344A360AC
:101C140070BDFFF767FFD9E79A009B0FFEF7D8FA6C
:101C24006422B0FBF2F102FB11031B013233B3FB5C
:101C3400F2F303EB0113EAE70010014010B5044688
:101C440048B390F8413003F0FF021BB980F84020FC
:101C540001F04AF82268242384F84130D36823F43D
:101C64000053D3602046FFF78BFF23681A6922F4E0
:101C740090421A615A6922F02A025A61DA6842F4DF
:101C84000052DA6000202023606484F8413084F834
:101C94004230606310BD0120FCE7000038B5044603
:101CA400134694F84120202A27D141B33BB30022A4
:101CB4002120E384626484F84100A06B114DA38465
:101CC4002162C563104D0564104DC0E913522268AA
:101CD4000432FEF75FFD23686FF040021A60226849
:101CE40002F1140353E8003F43F0800302F11401AE
:101CF40041E800300028F3D138BD0220FCE7012080
:101D0400FAE700BF151D0008631D0008731D0008D5
:101D14000268126812F4807208B5836B1AD1DA84EF
:101D2400196801F1140252E8002F22F080021431E4
:101D340041E800201A680028F2D102F10C0353E8AC
:101D4400003F43F0400302F10C0040E80031002959
:101D5400F3D108BD184600F04BFEFAE7704708B50A
:101D6400806BFFF7FBFF08BD70477047704710B5E5
:101D7400846B23685A6994F84110212912D1120600
:101D840010D50022E28403F10C0252E8002F22F065
:101D9400C00203F10C0040E800210029F3D1202205
:101DA40084F841205B6994F84220222A06D15B061C
:101DB40004D50023E3852046FFF7B4FE636C43F0AB
:101DC400100363642046FFF7D1FF10BD7047806B9A
:101DD40008B501234363036B012B04D1818D4908AA
:101DE400FFF7F4FF08BDFFF7C0FFFBE708B50346A4
:101DF400806B1B681B6813F4807337D1C38502683A
:101E040002F10C0353E8003F23F480730C3242E8E0
:101E1400003103680029F2D103F1140252E8002FC3
:101E240022F0010203F1140C4CE800210029F3D143
:101E340003F1140252E8002F22F0400203F1140CC3
:101E44004CE800210029F3D1202280F84220026BC3
:101E5400012A0BD103F10C0252E8002F22F01002E8
:101E640003F10C0C4CE800210029F3D10023436357
:101E7400036B012B03D1818DFFF7A8FF08BDFFF78A
:101E840073FFFBE773B5044681621346A285002500
:101E94002222456480F84220C06B1D4AC2631D4A59
:101EA400026426681C4AC0E913250A46311DFEF760
:101EB40071FC236801951A6801925A680192019A8B
:101EC40022695AB103F10C0252E8002F42F48072E5
:101ED40003F10C0040E800210029F3D103F11402BE
:101EE40052E8002F42F0010203F1140040E80021FF
:101EF4000029F3D103F1140252E8002F42F040020A
:101F040003F1140141E800200028F3D102B070BDB0
:101F1400F11D0008D31D0008731D000870B490F86B
:101F24004260202E06D141B13AB10024046370BC52
:101F3400FFF7A8BF022070BC70470120FBE782B006
:101F440000230193019B01330193019BB3F1706F53
:101F540016D80369002BF5DA00230193036943F0D3
:101F640001030361019B01330193019BB3F1706F82
:101F740006D8036913F00103F4D1184602B0704780
:101F84000320FBE784B038B505AD85E80E009DF865
:101F94001930012B044627D1836B23F480338363E8
:101FA400C36823F4840323F04003C360C36823F4A9
:101FB4004013C3609DF82030012B02BFC36843F473
:101FC4008013C360FFF7BBFF9DF81630012B07D1C8
:101FD400A36843F00603A360A36843F02003A3604F
:101FE400BDE8384004B07047C36843F04003C360A1
:101FF400FFF7A5FF9DF81D3023B9A36B43F480338D
:10200400A363E1E7A36B23F48033F9E7022A58D1F1
:102014002E4B2F4A0B44934247D92E4B2E4A0B4446
:10202400934244D9A1F574032C4AA3F51053934267
:102034003FD9A1F1837302F5C332A3F5E743A0327C
:10204400934238D9264B274A0B44934235D9264B21
:1020540002F592220B4402F5787293422FD9234B56
:1020640002F5C3220B4402F52072934229D9A1F14F
:10207400B77302F5B712A3F5585302F55872934299
:1020840021D91B4B02F512220B4402F5F86293424C
:1020940094BF07230623C26822F47052C260C26848
:1020A40042EA8323C360002070470F23F3E70E2323
:1020B400F1E70D23EFE70C23EDE70B23EBE70A230E
:1020C400E9E70923E7E70823E5E700BF405327FFD3
:1020D400FF340C00401E1BFF3F420F007F4F1200D5
:1020E40060B6E5FE5FE3160000D3CEFEC05BB3FE30
:1020F400E05459FE836843F0010383600020704775
:10210400836823F0010383600020704738B5C368F7
:10211400012923F0C0430546C36010D1C36843F0CE
:102124000053C36000240A20FEF722FA6B69D90722
:1021340004F10A0415D4C82CF5D1012038BD0029B6
:10214400FBD1C36843F08043C3600C460A20FEF70A
:102154000FFA6B69DA0704F10A0402D5C82CF5D129
:10216400EBE7A4F1C80358425841E7E782B00023E3
:102174000193019B01330193019BB3F1706F16D856
:102184000369002BF5DA8901002341F02001019352
:102194000161019B01330193019BB3F1706F06D878
:1021A400036913F02003F4D1184602B070470320EA
:1021B400FBE782B000230193019B01330193019B50
:1021C400B3F1706F14D80369002BF5DA002301937F
:1021D40010230361019B01330193019BB3F1706FE1
:1021E40006D8036913F01003F4D1184602B07047FF
:1021F4000320FBE7D0F800381943C0F8001800208A
:102204007047000084B02DE9F843044609A880E82B
:102214000E0000239DF824709DF82E60194603F1EA
:10222400400204EB820201330F2B5160F7D104F515
:102234000065002E6CD16B6843F002036B60A36BE6
:1022440043F40013A363A36B23F40023A363A36BDE
:1022540023F48023A3630023C4F8003E9DF82930AF
:10226400012B5FD19DF82710002959D12046FFF793
:10227400C1FF10212046FFF779FF02462046FFF7F1
:1022840098FF002850D1101C18BF012000232B6197
:1022940004F510626B611946EB614FF0904C4FF0FE
:1022A400006E4FF67F389F4240D8002204F5306319
:1022B40011464FF0904C4FF0006E4FF67F38974226
:1022C40047D82B6923F480732B610023A3616FF03B
:1022D400804363619DF826301BB9A36943F0100362
:1022E400A361A269244B1343A3619DF82A301BB157
:1022F400A36943F00803A361012E01BFA36943F05E
:10230400804343F00403A361BDE8F84304B070477D
:10231400A36B23F40013A363A36B43F4002399E793
:102324001946A3E70321A1E70120AFE7D2F8009003
:10233400B9F1000F0BDA3BB9C2F800E011610133C7
:10234400C2F808802032AEE7C2F800C0F6E7116098
:10235400F4E7D3F80090B9F1000F0BDA3AB9C3F8F7
:1023640000E019610132C3F808802033A7E7C3F8FD
:1023740000C0F6E71960F4E700383C80D0F808386C
:1023840013F0060004D013F0020F14BF02200F2034
:10239400704730B50D78012405F00F039C404B784D
:1023A40000F50062012B00EB4510D36918D11C43E2
:1023B400D461D0F800391A0410D48B680979D0F8A4
:1023C4000029C3F30A0343F0805343F4004343EA70
:1023D400814343EA85531343C0F80039002030BDDC
:1023E40043EA0444D461D0F8003B1B04F6D48B6860
:1023F4000979D0F8002BC3F30A0343F0805343F464
:10240400004343EA81431343C0F8003BE6E700007E
:1024140010B50A784978012900EB421302F00F0144
:1024240000F5006020D1D3F80029002A0BDAD3F894
:10243400002942F00062C3F80029D3F8002942F0D1
:102444008042C3F800290122C46B8A40D24314405D
:10245400C463C1690A40C261D3F80019134A0A402F
:10246400C3F80029002010BDD3F8002B002A0BDA92
:10247400D3F8002B42F00062C3F8002BD3F8002BF2
:1024840042F08042C3F8002B4FF48032C46B8A4080
:10249400D2431440C463C1690A40C261D3F8001B2B
:1024A400034A0A40C3F8002BDCE700BF007833EC92
:1024B4000078F3EF82B000234A7801930B78012A65
:1024C4004FEA43131DD100F51060C118C258002A09
:1024D40015DAC25842F00062C250C25842F080423B
:1024E400C25042F21072019B01330193019B93424B
:1024F40002D9012002B070470B68002BF3DB0020E7
:10250400F8E700F53060C118C258002AF7DAC2585B
:1025140042F00062C250C25842F08042C25042F2BD
:102524001072019B01330193019B9342E1D80B6824
:10253400002BF6DBE3E710B59DF808404CB90333F4
:1025440000EB02309B0800F5805001EB83039942B5
:1025540001D1002010BD51F8042B0260F7E7000000
:102564002DE9F3414C7891F800C00B690E79DFF83E
:10257400C8E1DFF8C881012C00EB4C1540F08A80DB
:1025840005F5106453BB236903EA0E032361236931
:1025940043F400232361236903EA08032361012A26
:1025A4000E794CD1CB6903B16361012E0CD1D0F803
:1025B400083813F4807FD5F800390CBF43F000537A
:1025C40043F08053C5F80039D5F8003943F004438B
:1025D400C5F80039002002B0BDE8F081276907EA98
:1025E40008072761276907EA0E0727618F68BCF18E
:1025F400000F0CD1BB42236988BF0F6143F4002351
:1026040023610B692669C3F312033343C6E73B44D2
:10261400013BB3FBF7F3474FD4F810C007EAC347B5
:1026240047EA0C07012E2761EBD1266926F0C04644
:10263400266126695B0703F0C0433343E0E7D5F81E
:102644000039012E43F00443C5F800390B690CD05E
:10265400002BBFD00B78D0F8344803F00F020123CD
:1026640093402343C0F83438B4E7D0F8084814F44E
:10267400807FD5F800490CBF44F0005444F08054E6
:10268400C5F800490C7800929BB22246C968FFF74E
:1026940052FF9FE705F530673C6904EA08043C6192
:1026A4003C6904EA0E043C618C68BCF1000F26D13D
:1026B40003B10C610C623B69C4F312041C433C611A
:1026C4003B6943F400233B61012A02D1CB6803B187
:1026D4007B61012E0CD1D0F8083813F4807FD5F833
:1026E400003B0CBF43F0005343F08053C5F8003B5C
:1026F400D5F8003B43F00443C5F8003B6AE7002BE0
:10270400D9D02344013BB3FBF4F31FFA83FC04FB4D
:102714000CF4DFF820C0D7F810E00C620CEAC343D5
:1027240043EA0E033B613B69C4F312041C433C615E
:10273400CAE700BF0000F81FFFFF07E00000F8FF32
:1027440070B50023940800F5805502F00302A342FB
:1027540016D301EB84018AB100F580500C4605685C
:102764000023D80025FA00F0013304F8010B98B2D5
:102774008242F6D1013A92B201321144084670BD48
:102784002E6841F823600133E1E74A780B78012A87
:1027940000EB431012D1D0F80029002A06DB2BB13C
:1027A400D0F8003923F08043C0F80039D0F800395C
:1027B40043F40013C0F8003900207047D0F8002B10
:1027C400002A06DB2BB1D0F8003B23F08043C0F88D
:1027D400003BD0F8003B43F40013C0F8003BEBE7A8
:1027E4000B784A7800EB43100B79012AA3F102031A
:1027F400DBB20FD1D0F80029012B22F40012C0F86B
:10280400002905D8D0F8003943F08053C0F80039C6
:1028140000207047D0F8002B22F40012012BC0F8DE
:10282400002B9EBFD0F8003B43F08053C0F8003B20
:10283400EEE7D0F8003823F4FE63C0F80038D0F88F
:102844000038090101F4FE611943C0F800180020A2
:102854007047D0F8003E23F00303C0F8003ED0F8E0
:10286400043823F00203C0F8043800207047D0F87D
:10287400003E23F00303C0F8003ED0F8043843F0D0
:102884000203C0F804380020704742698069104090
:102894007047D0F8183800F50060C0691840000C83
:1028A4007047D0F8183800F50060C069184080B24D
:1028B400704700EB411100F50060D1F8082B406926
:1028C4001040704710B5D0F81048D0F8343800EBF9
:1028D400411001F00F01CB4000F51060DB0180686E
:1028E400DBB22343184010BD406900F0010070477B
:1028F400D0F8003923F4FF6323F00703C0F800394C
:10290400D0F8043843F48073C0F8043800207047CA
:1029140030B5056C104CA54200F5306303D9D0F8EE
:10292400004B002C16DB00241C611C6944F40024B9
:102934001C611C6944F018041C611C69012944F0E1
:10294400C0441C6101BF5A61D0F8003B43F08023AE
:10295400C0F8003B002030BD0A30544F10B4114879
:102964000278EAB9104A114B1488198889B2A14235
:1029740016D011881C888C4235BF12881A88198891
:10298400C2F5007238BF521A094992B20A80012175
:1029940001701B880749084810BC1944FFF77EB929
:1029A40010BC7047180100201A0100201E010020ED
:1029B4001C010020AC0800200C0B0020094A0A4925
:1029C400138809880133C3F308038B4210B407D07A
:1029D4001188064C138089B2605410BCFFF7BEBF47
:1029E40010BC70471A0100201E010020AC08002012
:1029F4000268084B9A420CD1074A084B11881B887D
:102A04000B44C3F308031380054B00221A70FFF72D
:102A1400A5BF7047001001401E0100201C010020CA
:102A24001801002010B594B0102200210AA801F06A
:102A3400C5FA1422002103A801F0C0FA0021214B99
:102A440001911A6C42F080521A641B6C1E4A03F006
:102A540080530193019B0291136823F4404343F490
:102A640000431360136803F440430293029B012262
:102A74004FF48033CDE9082302244FF48003CDE9D9
:102A84000E4319214FF4A8730420CDE91013072332
:102A9400CDE9120308A8FEF7ABFD08B172B6FEE754
:102AA4000F23CDE903344FF480530590CDE906306C
:102AB400214603A8FEF776FF08B172B6FEE714B00C
:102AC40010BD00BF00380240007000402DE9F04303
:102AD40089B000246A4DFDF71FFDFFF7A3FF142200
:102AE400002103A801F06AFA00942B6B654843F0B7
:102AF40080032B632B6B03F080030093009B0194F2
:102B04002B6B43F002032B632B6B03F00203019343
:102B1400019B02942B6B43F001032B632B6B03F09B
:102B24000103224602934FF40041029BFEF704F88E
:102B340022464FF480715448FDF7FEFF012703A994
:102B440050484FF40048CDE90544CDE903874FF4DC
:102B54008076FDF717FF03A94B48CDE90544CDE97D
:102B64000367FDF70FFF03942B6B43F480032B6380
:102B74002B6B464D03F480032246214603933A20EF
:102B8400039BFDF71BFD3A20FDF74CFD2246214631
:102B94004620FDF713FD4620FDF744FD3C4A2C6119
:102BA4004FF4E133C5E9002328460C23C5E9024468
:102BB400C5E90534EC61FFF741F8044608B172B683
:102BC400FEE700F025F9224641462E48FDF7B4FF02
:102BD400224631462C482F4CFDF7AEFFC820FDF7A6
:102BE400C7FC3A4631462848FDF7A6FF3220FDF7D8
:102BF400BFFC3A4641462348FDF79EFF324626492C
:102C04002846FFF78BF9EB6BDFF898801B685E684A
:102C1400C6F58076D8F80030B342F4D01E4AD05CB2
:102C24000133DBB2C8F800302388B3F5007F0AD241
:102C34001A4B1B4A1F78238802EB47229BB2591C6C
:102C440089B2D0542180DFF8609099F80030002BCD
:102C5400E0D123889BB2002BDCD0104F104B387886
:102C6400218803EB402000F031F90028D2D1012360
:102C740089F800303B7883F001033B702080C9E77A
:102C84000038024000040240000002400C0B002007
:102C940000100140220100204C07002021010020E7
:102CA4004C030020140100202001002072B6FEE72E
:102CB40082B00C4B002100915A6C42F480425A6459
:102CC4005A6C02F480420092009A01911A6C42F00C
:102CD40080521A641B6C03F080530193019B02B071
:102CE400704700BF0038024070B5064688B0142211
:102CF400002103A801F062F93268314B9A425CD199
:102D0400002503F5943301955A6C42F010025A647D
:102D14005A6C02F010020192019A02951A6B42F069
:102D240001021A631B6B03F001030293029B4FF42D
:102D3400C0600223CDE9030303240723214803A928
:102D4400CDE90643FDF71EFE1F4CDFF888C0A561E0
:102D54004FF00063C4E900C34FF48063C4E9043551
:102D64004FF4807E4FF400332046C4E90255C4E991
:102D740007E36562FDF790FC08B1FFF797FF134A7C
:102D8400F463A663124C4FF00063C4E900230023EC
:102D94004FF480624021C4E9042320464FF40032FA
:102DA400C4E90213C4E90633C4E90823FDF774FC3B
:102DB40008B1FFF77BFFB463A66308B070BD00BF22
:102DC4000010014000000240AC0A0020B864024038
:102DD4004C08002040640240FEE7FEE7FEE7FEE701
:102DE400FEE7704770477047FDF7B0BB0148FDF739
:102DF4000BBD00BFAC0A00200148FEF76DB800BF50
:102E0400301800200148FDF7FFBC00BF4C0800202B
:102E140008B500220E490F4800F03FFA08B1FFF749
:102E240045FF0D490B4800F04BFA08B1FFF73EFF90
:102E34000A49084801F047F808B1FFF737FF054889
:102E440000F057FA18B1BDE80840FFF72FBF08BDDE
:102E54001C000020540B00206C00002008000020FF
:102E64000020704700207047014B00201870704705
:102E74002001002070B504460E46054632682B1B1F
:102E84009A4208D82146064801F036F8044801F071
:102E94005AF8002070BD15F8010BFFF78FFDEDE720
:102EA400540B002010B5064C06490022204601F0C0
:102EB40015F80549204601F01FF8002010BD00BF99
:102EC400540B002030120020300E002010B5094CA5
:102ED400D4F8BC32D3F814320A4643B9014620462A
:102EE40000F0FCFF2046BDE8104001F011B80120BD
:102EF40010BD00BF540B002012230B800048704704
:102F04003800002004230B80004870474C00002048
:102F1400002370B51E46050FECB2092D94BF303462
:102F2400373401F8134001EB430401336670DCB21B
:102F3400A2424FEA0010EED870BD00001A2310B56B
:102F44000B80094B186808331B68C0180AD0074B5C
:102F540007491C680822FFF7DBFF042205492046C5
:102F6400FFF7D6FF044810BD107AFF1F147AFF1F25
:102F740052000020620000205000002010B5044CD4
:102F840004480A46214600F06FFD204610BD00BFEC
:102F9400301600205D40000810B5044C04480A4671
:102FA400214600F061FD204610BD00BF3016002010
:102FB4007040000810B5044C04480A46214600F04D
:102FC40053FD204610BD00BF3016002044400008C9
:102FD40010B5044C04480A46214600F045FD20463D
:102FE40010BD00BF301600204F40000830B5044625
:102FF40089B01422002103A800F0E0FF2368B3F194
:10300400A04F2ED1184C194800250195236B43F08D
:1030140001032363236B03F0010301934FF4C052B4
:10302400019B0223CDE9032303210A23CDE90613DF
:1030340003A9FDF7A7FC636B43F080036363029568
:10304400636C43F480436364636C03F480430293CE
:1030540043202A462946029BFDF7B0FA4320FDF798
:10306400E1FA09B030BD00BF003802400000024060
:1030740000F29C41D0F8E00400F04EB9242303FB95
:103084000103D0F8E004D3F8602200F075B92423DA
:1030940003FB0103D0F8E0041A6A00F0A4B9D0F8E5
:1030A400E00400F03EBA10B5C379022B044601D007
:1030B400FFF7FCFDD4F8E004012100F016FAD4F87F
:1030C400E004BDE8104000F0E1B9000010B504468A
:1030D400D0F8E00400F00CFA2268D2F8003E43F085
:1030E4000103C2F8003EE37A23B1034A136943F0B3
:1030F4000603136110BD00BF00ED00E0D0F8E0044A
:1031040000F004BAD0F8E00400F02CBAD0F8E004DF
:1031140000F014BAD0F8E00400F038BAD0F8E004B3
:1031240000F036BA08B5027832BB144B4FF0A04118
:103134001960042119714FF40071C3F8E004D980B7
:10314400C0F8C8320221DA81184659729A72DA72CA
:103154001A73FDF7F6FC08B1FFF7A8FD80210748B4
:10316400FEF740FA402200210448FEF71BFA8022B1
:1031740001210248FEF716FA002008BD301800208D
:1031840008B5D0F8C802FDF74EFD032896BF024BE0
:103194000320185C08BD00BF8640000810B51C461B
:1031A400D0F8C80213462246FDF76FFD032896BFE8
:1031B400014B0320185C10BD8640000808B5D0F808
:1031C400C802FDF79BFD032896BF024B0320185C41
:1031D40008BD00BF8640000808B5D0F8C802FDF756
:1031E400FDFD032896BF024B0320185C08BD00BFF9
:1031F4008640000808B5D0F8C802FDF728FE032869
:1032040096BF024B0320185C08BD00BF864000082F
:1032140011F0800FD0F8C8324FF024021BBF01F028
:103224007F0102FB013102FB0131887D08BF91F867
:103234005602704708B5D0F8C802FDF713FD0328FD
:1032440096BF024B0320185C08BD00BF86400008EF
:1032540008B5D0F8C802FDF7A7FD032896BF024BB6
:103264000320185C08BD00BF8640000808B5D0F8EC
:10327400C802FDF771FD032896BF024B0320185CBA
:1032840008BD00BF86400008D0F8C802FDF784BD21
:103294000048704724010020704778B10023C0F82B
:1032A400B832C0F8C432C0F8D03209B1C0F8B41290
:1032B400012380F89C320270FFF734BF032070476B
:1032C40013B500230446ADF8063081B1CB6AC0F8CB
:1032D400B81223B10DF106009847C4F8D002D4F80F
:1032E400D8320133C4F8D832002002B010BD032014
:1032F400FBE7FFF745BFD0F8B8320BB11B6818479E
:103304001846704708B5D0F8B8325B68984700286B
:1033140014BF0320002008BD38B5044600F2AA25D6
:10332400284600F082FB012394F8AA12C4F89432D0
:10333400B4F8B032C4F8983201F01F03012B0FD057
:1033440008D3022B12D0204601F08001BDE838409A
:10335400FFF742BF29462046BDE8384000F04AB98D
:1033640029462046BDE8384000F094BA2946204654
:10337400BDE8384000F0BEBA70B50446164619BB25
:10338400D0F89432032B0ED1D0F85C31D0F8602100
:1033940093420AD99B1A9A42C0F85C3128BF1A4654
:1033A400314600F0A1FB002070BD90F89C32032B45
:1033B40006D1D0F8B8321B6913B1C4F8D4129847B7
:1033C400204600F099FBEEE790F89C32032BEAD1FB
:1033D400D0F8B8329B69002BE5D00022C0F8D42283
:1033E400BDE87040184770B5044616460D460029DE
:1033F4003DD1D0F89432022B0ED1D0E907239A4262
:1034040012D9D21AC261314600F057FB2B462A4624
:1034140029462046FFF72AFF94F8A03213B100236F
:1034240084F8A032002070BD0CD183699A4209D877
:10343400D0F89822934205D20A4600F03EFBC4F825
:103444009852E3E794F89C32032B08D1D4F8B832AD
:10345400DB6823B10022C4F8D42220469847802197
:103464002046FFF7B9FE204600F051FBD4E790F860
:103474009C32032BD6D1D0F8B8325B69002BD1D063
:103484000022C0F8D422BDE870401847F8B50123E3
:1034940080F89C32D0F8B83200210446C0F8941267
:1034A4004160C0F8A41280F8A012B3B9002600222B
:1034B40040251146012740232046FFF76FFEA4F85C
:1034C4006471C4F860512B46002280212046FFF726
:1034D40065FEA78425623046F8BD5B68002BE5D005
:1034E40098470028E2D00326E1E7017400207047E2
:1034F40090F89C32042B1EBF90F89C32DBB280F80B
:103504009D32042380F89C320020704790F89C324E
:10351400042B02BF90F89D32DBB280F89C3200206D
:10352400704708B590F89C22032A05D1D0F8B83228
:1035340013B1DB6903B19847002008BDD0F8D42249
:10354400AE3208B550F8222042B190F89C32032BD9
:1035540002D1136A23B19847002000E0032008BD7C
:103564001846FCE7D0F8D422AE3208B550F8222031
:1035740042B190F89C32032B02D1536A23B198478D
:10358400002000E0032008BD1846FCE70020704737
:10359400012208B580F89C22D0F8B8220AB900208C
:1035A40008BD5268017990470028F8D00320F7E756
:1035B400002070470020704710B5428803789A4273
:1035C4000AD90478204423444478052C9BB2F6D1CC
:1035D40084788C42F3D110BD0020FCE710B5802123
:1035E4000446FFF7F9FD20460021BDE81040FFF72F
:1035F400F3BD0000F7B50B7803F06003202B0446FD
:103604000E4612D0402B10D0002B5BD14B78092BE7
:1036140058D8DFE813F008012E0157001D015700A8
:10362400840017005700EF00A300D4F8D432AE335F
:10363400314654F8233020469B689847054628466F
:1036440003B0F0BD0023ADF806304B881A0A013AE6
:10365400062A37D8DFE802F0041C2936364E580013
:10366400D0F8B4321B68207C0DF106019847F2882B
:10367400002A00F0F280BDF806301BB39A4228BF3E
:103684001A46ADF806200146204600F009FA5FE02C
:10369400027CD0F8B83232B99B6A0DF10600984723
:1036A40002234370E3E7DB6AF7E7DBB2052B09D8B3
:1036B400DFE803F0030C1014181CD0F8B4325B6874
:1036C400002BD0D12046FFF789FF41E0D0F8B43277
:1036D4009B68F5E7D0F8B432DB68F1E7D0F8B43290
:1036E4001B69EDE7D0F8B4325B69E9E7D0F8B4328E
:1036F4009B69E5E7037C002BE4D1D0F8B8320DF1E7
:1037040006005B6B9847B2E7037C002BDAD1D0F854
:10371400B8320DF106001B6B98470723C1E78B886D
:10372400002BCFD1CF88002FCCD14D887F2DC9D885
:1037340090F89C32032BC5D0E9B280F89E12FFF7B3
:1037440079FD204600F0D8F925B1022384F89C3293
:10375400002574E7012384F89C3270E78D784C4F80
:10376400012D3D7003D9FFF739FF032567E790F872
:103774009C62F6B2022E08D0032E18D0FFF72EFF5B
:1037840039782046FFF7BEFDEFE7002D65D0012113
:103794004160FFF7B0FD0546204625B1FFF71EFF47
:1037A40084F89C624BE700F0A7F90323D3E755B9EB
:1037B400022380F89C3245602946FFF7A3FD20468A
:1037C40000F09AF93BE74168012946D0C9B2FFF7F6
:1037D40099FD397861602046FFF78DFD0546002884
:1037E4003BD02046FFF7FAFE21792046FFF78AFDF9
:1037F4000223B0E7CA88012A7FF464AF90F89C12D0
:1038040001F0FF0300293FF45DAF022B04D9032B21
:103814007FF458AF011D37E70146002541F8085FE2
:1038240000F03EF90BE790F89C32013B022B3FF687
:1038340049AFCB88022B7FF445AF0123C360D0F896
:10384400A4320BB10323C360022204F10C011BE771
:103854004B88012B05D1C0F8A432204600F04CF966
:1038640076E7022B7FF42EAF8B881B0A80F8A032F8
:10387400F3E790F89C32013B022B3FF623AF4B88D1
:10388400012B4FF000057FF4DAAEC0F8A45296E79E
:103894004403002070B50B7803F06003202B04462A
:1038A4000E4602D0402B00D0FBB994F89C32013B69
:1038B400022B1AD831790129204617D8FFF778FE50
:1038C40088B9D4F8B8329B686BB1C4F8D4023146D5
:1038D400204698470546F3881BB915B9204600F0E1
:1038E4000BF9284670BD0325F5E72046FFF776FE61
:1038F4000025F6E770B50E468988337803F0600337
:10390400202B0446CDB233D0402B31D063B9737829
:10391400012B1BD048D3032B06D190F89C32DBB289
:10392400022B37D0032B03D02046FFF757FE0BE0C2
:10393400738833B96B0604D0F38813B92946FFF7AB
:103944004BFC204600F0D8F8002070BD90F89C3263
:10395400DBB2022B1ED0032BE6D17388002BF3D1EC
:10396400690602D02946FFF745FC204600F0C4F85A
:1039740029462046FFF71EFE0028E5D1D4F8B832C8
:10398400C4F8D4029B68002BDED031462046BDE843
:10399400704018476E06C7D02946FFF71DFC8021EA
:1039A4002046FFF719FCCFE790F89C32DBB2022BDC
:1039B40018D0032BB8D105F00F02142311F0800F97
:1039C40003FB02021DD0928C002AADD005F07F06C5
:1039D40006FB0336064415F07F031DD13360022233
:1039E40031460AE06A069FD10B064CBF00F1140170
:1039F40000F5AA7100230B600222204600F050F863
:103A0400A2E7B2F86421002A8ED005F07F0603FBFA
:103A1400060606F5AA76DEE729462046FFF7F8FBF8
:103A240008B10123DAE73060D9E70B7803704B78EB
:103A34004370CA788B7843EA022343804A790B792E
:103A440043EA02238380CA798B7943EA0223C38041
:103A5400704710B580210446FFF7BEFB20460021C5
:103A6400BDE81040FFF7B8BB30B588B105462B1A46
:103A740015F8014BDBB2002CF9D101335B00138044
:103A84000B7003234B700138022310F8012F02B985
:103A940030BDCA545A1CD2B202338C54DBB2F4E7A0
:103AA40010B513460222C0F89422C0E906330A4630
:103AB4000021FFF7CDFB002010BD08B513460A46D0
:103AC4000021FFF7C5FB002008BD10B513460322F3
:103AD400C0F89422C0F858310A46C0F85C3100217D
:103AE400FFF7C4FB002010BD08B513460A460021A9
:103AF400FFF7BCFB002008BD08B504220023C0F872
:103B0400942219461A46FFF7A3FB002008BD08B506
:103B140005220023C0F8942219461A46FFF7A6FB93
:103B2400002008BDD0F8D43200EB830010B5D0F8E3
:103B3400C04284B1D0F8C4325BB194F80002FF28CB
:103B440007D09B6894F8012221469847FF2384F804
:103B54000032002000E0032010BD00000A2303808F
:103B640000487047E800002070B5822106460F48DF
:103B7400FFF722FD012105460C48FFF71DFD8121B9
:103B840004460A48FFF718FD0DB11023AB711CB1B0
:103B9400402323710023637118B140230371002370
:103BA400437143233380014870BD00BFA40000204B
:103BB400FFF7DABF70B5822106460F48FFF7FCFC19
:103BC400012105460C48FFF7F7FC812104460A4809
:103BD400FFF7F2FC0DB11023AB711CB1002323716C
:103BE4000223637118B10023037102234371432339
:103BF4003380014870BD00BFA400002038B5D0F860
:103C0400D432B033044650F823508DB1FFF73CFB57
:103C1400D4F8D432C5F80C0204EB830405F503711F
:103C2400D4F8C432D5F80402DB689847002038BDC4
:103C34000320FCE7F8B5D0F8D45200EB85058E4696
:103C4400D5F8C0324BB301F00F07142606FB070664
:103C5400B26992B1D0F8C8424FF0240C0CFB07476C
:103C6400FF69B2FBF7F407FB142434B9B4612346AB
:103C74002246FFF7EDFA20460EE0D5F8C422146977
:103C84000026C3F81462002CF5D0724603F50471C3
:103C9400D3F80802A0473046F8BD0320FCE7000033
:103CA400D0F8D4322DE9F34100EB83034FF0000840
:103CB400D3F8C0728DF8058005460E46ADF806802F
:103CC400002F65D00A7812F060042BD0202C5BD131
:103CD400CC8891F801C0F4B112060FD5D3F8C432E0
:103CE400224639469B6860469847F288072A28BFCF
:103CF400072239462846FFF7D3FE0AE0402C28BFA6
:103D0400402487F800C287F8014222463946FFF76B
:103D1400DCFE00203DE0D3F8C43222469B686046B6
:103D24009847F6E74B780B2B2ED801A252F823F0D4
:103D3400653D0008173D00088D3D00088D3D0008D5
:103D44008D3D00088D3D00088D3D00088D3D000827
:103D54008D3D00088D3D0008753D0008853D000837
:103D640090F89C32032B0FD102220DF10601C1E71A
:103D740090F89C32032B07D101220DF10501B9E71C
:103D840090F89C32032BC4D031462846FFF761FEDD
:103D9400032002B0BDE8F08138B504460025812136
:103DA400FFF70CFA012125872046FFF707FAA4F84C
:103DB400785182212046FFF701FAD4F8D432E56421
:103DC40004EB8303D3F8C0228AB1D3F8C4325B680E
:103DD4009847D4F8D432B03354F82300FFF75CFA90
:103DE400D4F8D432B03344F82350C4F8BC52002081
:103DF40038BDF8B504464FF40770FFF749FA064694
:103E040030B9D4F8D432B03344F82300022048E067
:103E14004FF40772002100F0D1F8D4F8D432B03353
:103E240044F82360237CC4F8BC62002B3AD14FF4DD
:103E340000730222812120460125FFF7AFF925876F
:103E44004FF40073294602222046FFF7A7F91023F6
:103E54000322A4F87851A4F84E3082210823204686
:103E6400FFF79CF9D4F8D43204EB83030025D3F88C
:103E7400C4320127A4F84C701B68C6F80452984752
:103E8400D6F80422C6F81452C6F81852002ABDD037
:103E9400267C8EB94FF4007339462046FFF7E6F9C5
:103EA4003046F8BD40230222812120460125FFF738
:103EB40075F925874023C5E7402339462046FFF797
:103EC400D5F92846EDE739B1D0F8D43200EB8300B8
:103ED400C0F8C4120020704703207047D0F8D432D1
:103EE400B03350F823302BB1C3F80812C3F81022B2
:103EF4000020704703207047D0F8D432B03350F814
:103F040023301BB1C3F8041200207047032070470C
:103F1400D0F8D432B03310B550F823207AB1D2F8A7
:103F2400144201236CB9C2F81432D2F81032C362BD
:103F3400D2F808228121FFF78BF9204610BD032017
:103F4400FCE71846FAE7D0F8D422B03210B550F89E
:103F5400222062B1047CD2F8042234B94FF40073F5
:103F64000121FFF783F9002010BD4023F8E7032067
:103F7400FAE7000070B50D4E0D4CA41BA4100025EB
:103F8400A54209D10B4E0C4C00F04AF8A41BA41016
:103F94000025A54205D170BD56F825309847013556
:103FA400EEE756F8253098470135F2E7AC400008B3
:103FB400AC400008AC400008B0400008024403468E
:103FC400934200D1704703F8011BF9E7DFF834D0BE
:103FD40000F025F80C480D490D4A002302E0D4589E
:103FE400C4500433C4188C42F9D30A4A0A4C00233F
:103FF40001E013600432A242FBD3FFF7BBFFFEF7DC
:1040040065FD70470000012000000020F80000203A
:10401400B4400008F8000020141D0020FEE770479B
:10402400F8B500BFF8BC08BC9E467047F8B500BFA1
:08403400F8BC08BC9E46704771
:10403C00000610160006101643444320436F6E66AC
:10404C0069670043444320496E7465726661636519
:10405C000053544D6963726F656C656374726F6E57
:10406C006963730053544D33322056697274756111
:10407C006C20436F6D506F727400000301030000DD
:10408C0000000000000001020304060708090000FC
:08409C00000001020304000012
:0840A40060C1FF7F0100000074
:0440AC00B90100084E
:0440B000950100086E
:1040B4000100000010000000A92E0008652E000871
:1040C400692E0008792E00086D2E0008FD2E0008C8
:1040D400092F0008812F00089D2F0008412F000898
:1040E400B92F0008D52F0008120100020202004077
:1040F4008304405700020102030100000403090481
:104104001A0300000000000000000000000000008E
:10411400000000000000000000000000F73D00085F
:104124009D3D0008A53C000800000000293B000854
:10413400393C0008013C00080000000000000000B9
:1041440000000000B93B00086D3B0008B53B0008C7
:10415400613B000809024300020100C03209040067
:1041640000010202010005240010010524010001E0
:104174000424020205240600010705820308001036
:1041840009040100020A00000007050102400000C2
:1041940007058102400000000A06000200000040FA
:0841A400010000000024F400FA
:0400000508003FD1DF
:00000001FF
